:100000000080002045000000F9000000F900000019
:10001000F9000000F9000000F9000000F9000000FC
:1000200000000000000000000000000000000000D0
:10003000F9000000F900000000000000F9000000D5
:10004000F90000001E491F4A1F4B9A42BEBF51F8DB
:10005000040B42F8040BF8E71C491D4A1D4B9A4259
:10006000BEBF51F8040B42F8040BF8E71A491B4ACB
:100070001B4B9A42BEBF51F8040B42F8040BF8E741
:100080001849194A194B9A42BEBF51F8040B42F85D
:10009000040BF8E71649174A00209142BCBF41F80B
:1000A000040BFAE740F20000C1F200004EF60851DE
:1000B000CEF20001086040F27910C1F20000004762
:1000C000FC000000000000102410011020110100AD
:1000D000241001102410011020110100241001101F
:1000E0002C10011028110100301001100819011006
:0C00F000000000200C030020FEE700BF11
:1000FC000080002079010010396900103969001066
:10010C0039690010396900103969001000000000CD
:10011C000000000000000000000000003969001021
:10012C0039690010000000003969001039690010AD
:10013C00211200102D12001039120010451200105F
:10014C00511200105D12001069120010751200108F
:10015C00811200108D12001099120010A5120010BF
:10016C00B1120010BD120010C9120010D5120010EF
:10017C00E1120010ED120010F9120010051300101E
:10018C00111300101D13001029130010351300104B
:10019C00411300104D13001059130010651300107B
:1001AC00711300107D1300108913001095130010AB
:1001BC00396900103969001039690010396900106B
:1001CC00396900103969001039690010396900105B
:1001DC00396900102969001039690010396900105B
:1001EC00396900103969001039690010396900103B
:1001FC00396900103969001039690010396900102B
:10020C00396900103969001039690010396900101A
:10021C000000000000000000000000003969001020
:10022C0099590010CD5A0010000000000000000089
:10023C0039690010396900103969001039690010EA
:10024C0039690010396900103969001039690010DA
:10025C0039690010396900103969001039690010CA
:10026C00855000103969001040F20000C1F2000006
:10027C004EF60851CEF20001086000F079FA00F059
:10028C0001F800BF80B500AF00F002F880BD00BFE0
:10029C0090B585B002AF00F087F9504B5B6A062031
:1002AC00042198474D4BDB690B20012198474C4B9F
:1002BC009B68002000219847494B5C690023009300
:1002CC004FF4E130082100220023A047444B1B6966
:1002DC0002209847424B9B69424806219847404B65
:1002EC001B6A98470346012B76D13D4BDB69BA1D3F
:1002FC001046012198473A4B9B69BA1D10460121C3
:10030C009847BB797B2B02D07D2B0CD053E0364B1E
:10031C0000221A60344B1B685A1C33490A60B979A5
:10032C00324AD15458E0304B1B685A1C2E490A6093
:10033C00B9792E4AD1542C4B1B685A1C2A490A6095
:10034C002A4A0021D154284B00221A603B462748E8
:10035C0027491A4606F06AFB0346012B2AD142F2C2
:10036C00107000F0B9F91E4B5C693A6800230093D9
:10037C001046082100220023A0470346FB71FB799D
:10038C00002B02D0022B09D00EE01A4800F0A4F981
:10039C00134B9B691848082198470BE0104B9B693D
:1003AC0016480E21984705E00D4B9B69144808210F
:1003BC00984700BF10E00C4B1B685A1C0A490A6096
:1003CC00B9790A4AD154084B1B68FF2B03D9064B49
:1003DC0000221A60FFE700BF81E700BFAC070110E5
:1003EC00CC0A011038070110000000200802002080
:1003FC0040070110A08601004C070110580701109E
:10040C006807011080B483B000AF00237B600DE05F
:10041C000B4A7B68002102F83310094A7B68DB0029
:10042C00134400225A607B6801337B607B68032B8A
:10043C00EEDD012318460C37BD465DF8047B704792
:10044C000400002090B587B000AF03463960FB7103
:10045C001C4B1B681B6A002098470446194B1B68F1
:10046C001B6A012098470346B4FBF3F37B61164BE0
:10047C001B68164AA2FB03239A097B69B2FBF3F3B0
:10048C003B61FB79032B01D9002316E0104B1B6851
:10049C00DB6A9847F860FB793A68396901FB02F22C
:1004AC00F9688A1A01320B49DB000B445A60FB795C
:1004BC00084A012102F83310012318461C37BD46A7
:1004CC0090BD00BF301001103C100110D34D6210D4
:1004DC00381001100400002080B483B000AF034634
:1004EC00FB71FB79032B01D900230BE0FB79084A44
:1004FC00002102F83310FB79054ADB00134400227B
:10050C005A60012318460C37BD465DF8047B7047D2
:10051C000400002080B483B000AF0346FB71FB796C
:10052C00032B01D9002303E0FB79044A12F8333082
:10053C0018460C37BD465DF8047B7047040000205C
:10054C0080B584B000AF0346FB71FB79032B01D956
:10055C00002321E0FB79124A12F8333083F00103B7
:10056C00DBB2002B01D0002316E00E4B1B68DB6ABC
:10057C009847F860FB790A4ADB0013445B68FA6819
:10058C00D31ABB60BB68002B05DAFB791846FFF762
:10059C00A3FF012300E0002318461037BD4680BDA1
:1005AC00040000203810011098B500AF344B1B68C4
:1005BC005B6800209847324B1B685B6A0020052162
:1005CC0098472F4B1B68DB690020012198472C4B67
:1005DC001B68DB69012004219847294B1B68DB69E8
:1005EC00022004219847264B1B68DB690320042159
:1005FC009847244B1B689B689847224B1B681B69C8
:10060C00022098471F4B1B685C690A2003210022BB
:10061C000023A0471C4B1B689B68002000219847B7
:10062C000346002B06D1184B1B685B692020022166
:10063C0001229847144B1B681B6A9847034683F0AA
:10064C000103DBB2002B0FD00F4B1B681B69022080
:10065C0098470D4B1B689B696FF001009847034648
:10066C00012B01D1002309E001200021FFF7EAFE54
:10067C0000204FF4FA71FFF7E5FE0123184698BDF0
:10068C0030100110341001103810011080B500AF7B
:10069C000020FFF755FF0346002B16D000204FF427
:1006AC00FA71FFF7CFFE0A4B1B78002B0CBF01230E
:1006BC000023DBB21A46064B1A70064B1B681B6AEA
:1006CC00034A12780A20114698470023184680BD29
:1006DC00280000203410011080B485B000AF786081
:1006EC00184B1B68184A934210D9164B1B6803F51C
:1006FC00742303F23F23154AA2FB03239B0C7A6855
:10070C0002FB03F3FB600823BB600AE07B686422F6
:10071C0002FB03F3FB600B4B1B680D4AB2FBF3F3BC
:10072C00BB6007E000BF00BF00BF00BFFA68BB683A
:10073C00D31AFB60FB68002BF4DC1437BD465DF864
:10074C00047B70473C100110FF083D0083DE1B4307
:10075C000008AF2F80B400AF034B044A1A60BD46AB
:10076C005DF8047B704700BF3C100110001BB70004
:10077C0080B400AF054A054BD3F8883043F47003BE
:10078C00C2F88830BD465DF8047B704700ED00E090
:10079C0080B483B000AF0346FB71084997F907306A
:1007AC005B09FA7902F01F02012000FA02F241F80B
:1007BC0023200C37BD465DF8047B704700E100E058
:1007CC0080B483B000AF0346FB71094997F9073039
:1007DC005B09FA7902F01F02012000FA02F22033C1
:1007EC0041F823200C37BD465DF8047B704700BFF1
:1007FC0000E100E080B483B000AF0346FB7109490F
:10080C0097F907305B09FA7902F01F02012000FA10
:10081C0002F2603341F823200C37BD465DF8047BAF
:10082C00704700BF00E100E080B483B000AF786097
:10083C007B681E2B7ED801A252F823F0C90700104A
:10084C00CD070010D1070010D5070010D9070010F4
:10085C00DD070010E1070010E5070010E9070010A4
:10086C00ED070010F1070010F5070010F907001054
:10087C00FD07001001080010050800100908001001
:10088C000D080010110800101508001019080010B0
:10089C001D08001021080010250800102908001060
:1008AC002D08001031080010350800103908001010
:1008BC003D0800104108001000233CE001233AE001
:1008CC00022338E0032336E0042334E0052332E02E
:1008DC00062330E007232EE008232CE009232AE02E
:1008EC000A2328E00B2326E00C2324E00D2322E02E
:1008FC000E2320E00F231EE010231CE011231AE02E
:10090C00122318E0132316E0142314E0152312E02D
:10091C00162310E017230EE018230CE019230AE02D
:10092C001A2308E01B2306E01C2304E01D2302E02D
:10093C001E2300E01F235BB218460C37BD465DF842
:10094C00047B704780B500AF0A4B5B6D142001210E
:10095C009847084B5B6D152001219847054B5B6D43
:10096C00162001219847034B5B6D172001219847F6
:10097C0000BF80BDAC07011080B500AF0A4B5B6DAA
:10098C00142000219847084B5B6D152000219847D7
:10099C00054B5B6D162000219847034B5B6D1720B0
:1009AC000021984700BF80BDAC07011080B584B012
:1009BC0000AF78600B46FB707B687B730023FB7386
:1009CC000123BB737B68002B00D129E0FB78062B3D
:1009DC001FD801A252F823F02309001005090010BA
:1009EC000B09001023090010110900101709001041
:1009FC001D0900100223BB730CE00023BB7309E03C
:100A0C000123FB7306E00223FB7303E00323FB7358
:100A1C0000E000BF044B9B6E787BF97BBA7B984758
:100A2C001037BD4680BD00BFAC07011080B582B049
:100A3C0000AF78607B6803F01F037B60134BD3F827
:100A4C0084307A68012101FA02F21340002B18D18C
:100A5C007868FFF7E9FE03461846FFF7CBFE786887
:100A6C00FFF7E2FE03461846FFF792FE0749074BD5
:100A7C00D3F884307A68012000FA02F21343C1F8EB
:100A8C00843000BF0837BD4680BD00BF2C0000205D
:100A9C0080B582B000AF78607B6803F01F037B6089
:100AAC00134BD3F884307A68012101FA02F2134017
:100ABC00002B19D07868FFF7B7FE03461846FFF7EE
:100ACC007FFE7868FFF7B0FE03461846FFF792FEEC
:100ADC000749074BD3F884307A68012000FA02F2F8
:100AEC00D2431340C1F8843000BF0837BD4680BDE7
:100AFC002C00002080B483B000AF786039607B6834
:100B0C0003F007023B681A607B68DB08012B06D0F8
:100B1C00012B02D3022B04D005E0064B04E0064B5C
:100B2C0002E0064B00E0064B18460C37BD465DF85C
:100B3C00047B704700B0044000C0044000D0044067
:100B4C0000E0044080B485B000AFF8600B467A60DA
:100B5C00FB72FB6803F01F03FB60FB7A03F00103DD
:100B6C00FB727B6803F140435A01FB689B00134402
:100B7C0003F184431A46FB7A136000BF1437BD4659
:100B8C005DF8047B704700BF80B584B000AF78601F
:100B9C007B6803F01F037B6007F108037868194634
:100BAC00FFF7A8FFF860BA68FB6803F21C43104615
:100BBC0001211A46FFF7C6FF084A7B689B001344C5
:100BCC005B68002B06D0054A7B689B0013445B686E
:100BDC00786898471037BD4680BD00BF2C000020B8
:100BEC0080B483B000AF084B1B687B600023BA88CD
:100BFC0062F30F03FA8862F31F4318460C37BD46A5
:100C0C005DF8047B704700BFA407011080B485B069
:100C1C0000AF78600023FB607B681F2B00F29B8089
:100C2C0001A252F823F000BFB90B0010F30B001017
:100C3C00F30B0010F30B0010F30B0010F30B001070
:100C4C00F30B0010F30B00102D0C00102D0C0010EA
:100C5C002D0C00102D0C00102D0C00102D0C001064
:100C6C002D0C00102D0C00102D0C00102D0C001054
:100C7C002D0C00102D0C00102D0C00102D0C001044
:100C8C002D0C00102D0C0010F30B0010F30B0010AA
:100C9C00F30B0010F30B00102D0C00102D0C00109A
:100CAC00F30B00102D0C0010394A7B6822FA03F369
:100CBC00DBB203F00103DAB23B7B62F300033B735C
:100CCC003B7B6FF341033B733B7B6FF382033B73C3
:100CDC003B7B43F008033B733B7B43F010033B73BC
:100CEC004EE02B4A7B6822FA03F3DBB203F00103DC
:100CFC00DAB23B7B62F300033B733B7B43F00203B2
:100D0C003B733B7B43F004033B733B7B43F0080397
:100D1C003B733B7B43F010033B7331E01C4A7B6815
:100D2C0022FA03F3DBB203F00103DAB23B7B62F38A
:100D3C0000033B733B7B43F002033B733B7B43F071
:100D4C0004033B733B7B6FF3C3033B733B7B43F06D
:100D5C0010033B7314E03B7B6FF300033B733B7B53
:100D6C006FF341033B733B7B6FF382033B733B7B22
:100D7C006FF3C3033B733B7B6FF304133B7300BFF5
:100D8C00FB6818461437BD465DF8047B704700BFFE
:100D9C00FF0FFFF080B582B000AF0346FB71154B1F
:100DAC001B78002B01D101231FE0FB79002B04D011
:100DBC00002B17DB022B15DC0AE00E4B5B78002BAB
:100DCC0005D0FFF7D9FD0B4B00225A700CE00BE05D
:100DDC00084B5B78002B01D1FFF7B4FD054AFB797A
:100DEC00537001E0012300E0002318460837BD468C
:100DFC0080BD00BF2C00002080B582B000AF134B2B
:100E0C001B78002B01D001231BE0104B01221A7020
:100E1C00FFF7B2FD00237B6008E00C4A7B689B0067
:100E2C00134400225A607B6801337B607B681F2B64
:100E3C00F3D9064B0022C3F884200120FFF7AAFF48
:100E4C00034618460837BD4680BD00BF2C00002065
:100E5C0080B582B000AF114B1B78002B04D0002062
:100E6C00FFF798FF0346FB7000237B600BE078686C
:100E7C00FFF70EFE094A7B689B00134400225A6060
:100E8C007B6801337B607B681F2BF0D9034B0022FE
:100E9C001A70002318460837BD4680BD2C00002070
:100EAC0080B58AB000AFF8607B600B46FB721346CE
:100EBC00BB72002387F82730002387F826300023E5
:100ECC0087F82530002387F82430012387F8233056
:100EDC00754B1B78002B01D10123E1E0724B5B7841
:100EEC00022B01D00123DBE0FB681F2B01D901236E
:100EFC00D6E06E4AFB6822FA03F303F00103002BE1
:100F0C0001D10123CCE0F868FFF780FE0346BB61FA
:100F1C00FB7A062B25D801A252F823F0770E00108D
:100F2C00490E0010490E00105B0E00105B0E0010F5
:100F3C005B0E00105B0E00103B7E03F00203DBB275
:100F4C00002B01D10123ABE00EE03B7E03F0040348
:100F5C00DBB2002B01D10123A2E0012387F827305B
:100F6C0002E001239CE000BFBB7A052B21D801A233
:100F7C0052F823F09D0E0010A50E0010AB0E0010C1
:100F8C00B30E0010C70E0010BB0E0010002387F824
:100F9C00233011E0012387F82430012387F8263011
:100FAC000AE0012387F8243005E0012387F8253077
:100FBC0002E0012374E000BF07F11403F86819463E
:100FCC00FFF798FDF8617A69FB6903F582631046B7
:100FDC0000211A46FFF7B6FDFB7AF8681946FFF7B1
:100FEC00E5FC7969FB6903F5806397F827200846CF
:100FFC0011461A46FFF7A6FD97F82730002B42D171
:10100C0097F82330002B3ED0274AFB689B001344F3
:10101C007A685A60F868FFF709FD7969FB6903F291
:10102C00044397F82620084611461A46FFF78AFD16
:10103C007969FB6903F5816397F825200846114609
:10104C001A46FFF77FFD7969FB6903F20C4397F8A9
:10105C002420084611461A46FFF774FD7A69FB698D
:10106C0003F21C43104601211A46FFF76BFD796908
:10107C00FB6903F5826397F82320084611461A464C
:10108C00FFF760FD0BE07A69FB6903F21C43104625
:10109C0001211A46FFF756FDF868FFF7F9FC00230B
:1010AC0018462837BD4680BD2C000020FF0FFFF0EE
:1010BC0080B586B000AF786039601C4B1B78002B74
:1010CC0001D101232EE0194B5B78022B01D00123B7
:1010DC0028E07B681F2B01D9012323E0144A7B688D
:1010EC0022FA03F303F00103002B03D13B68002227
:1010FC001A6016E007F10C0378681946FFF7FAFC42
:10110C007861FB681A46012393401A467B6953F8B1
:10111C0022303B613B69FA68D34003F001023B6823
:10112C001A60002318461837BD4680BD2C000020DD
:10113C00FF0FFFF080B485B000AF78600023FB6038
:10114C00294B1B78002B01D1012347E0264B5B7800
:10115C00022B01D0012341E0244BDBB29B0003F1B5
:10116C00804303F596231B68BB60BB68DBB2FA684F
:10117C001343FB601D4B03F47F431B0A9B0003F1DD
:10118C00804303F598231B68BB60BB681B029BB2B2
:10119C00FA681343FB60154B03F47F031B0C9B0095
:1011AC0003F1804303F59A231B68BB60BB68DBB279
:1011BC001B04FA681343FB600C4B1B0E9B0003F1E2
:1011CC00804303F59C231B68BB60BB681B06FA6855
:1011DC001343FB607B68FA681A60002318461437C7
:1011EC00BD465DF8047B70472C000020FF0FFFF01C
:1011FC0080B584B000AF786039601C4B1B78002B35
:10120C0001D101232DE0194B5B78022B01D0012376
:10121C0027E07B681F2B01D9012322E03B68012BBF
:10122C0001D901231DE0124A7B6822FA03F303F073
:10123C000103002B14D007F1080378681946FFF757
:10124C0059FCF860BB681A460123934019463B6869
:10125C0003F00103BA6803FA02F2FB6843F8212099
:10126C00002318461037BD4680BD00BF2C0000205F
:10127C00FF0FFFF080B485B000AF78603960224A70
:10128C007B681340FB60214B1B78002B01D10123A1
:10129C0034E01E4B5B78022B01D001232EE0FB685F
:1012AC00DBB29B0003F1804303F596233A68D2B27C
:1012BC001A60FB6803F47F431B0A9B0003F1804315
:1012CC0003F598233A68120AD2B21A60FB6803F449
:1012DC007F031B0C9B0003F1804303F59A233A68B0
:1012EC00120CD2B21A60FB681B0E9B0003F18043F8
:1012FC0003F59C233A68120E1A6000231846143723
:10130C00BD465DF8047B7047FF0FFFF02C000020FA
:10131C0080B500AF0020FFF737FC80BD80B500AF73
:10132C000120FFF731FC80BD80B500AF0220FFF734
:10133C002BFC80BD80B500AF0320FFF725FC80BDE2
:10134C0080B500AF0420FFF71FFC80BD80B500AF57
:10135C000520FFF719FC80BD80B500AF0620FFF714
:10136C0013FC80BD80B500AF0720FFF70DFC80BDDE
:10137C0080B500AF0820FFF707FC80BD80B500AF3B
:10138C000920FFF701FC80BD80B500AF0A20FFF7F4
:10139C00FBFB80BD80B500AF0B20FFF7F5FB80BDDC
:1013AC0080B500AF0C20FFF7EFFB80BD80B500AF20
:1013BC000D20FFF7E9FB80BD80B500AF0E20FFF7D5
:1013CC00E3FB80BD80B500AF0F20FFF7DDFB80BDD8
:1013DC0080B500AF1020FFF7D7FB80BD80B500AF04
:1013EC001120FFF7D1FB80BD80B500AF1220FFF7B5
:1013FC00CBFB80BD80B500AF1320FFF7C5FB80BDD4
:10140C0080B500AF1420FFF7BFFB80BD80B500AFE7
:10141C001520FFF7B9FB80BD80B500AF1620FFF794
:10142C00B3FB80BD80B500AF1720FFF7ADFB80BDCF
:10143C0080B500AF1820FFF7A7FB80BD80B500AFCB
:10144C001920FFF7A1FB80BD80B500AF1A20FFF774
:10145C009BFB80BD80B500AF1B20FFF795FB80BDCB
:10146C0080B500AF1C20FFF78FFB80BD80B500AFAF
:10147C001D20FFF789FB80BD80B500AF1E20FFF754
:10148C0083FB80BD80B500AF1F20FFF77DFB80BDC7
:10149C0080B483B000AF0346FB71084997F907305D
:1014AC005B09FA7902F01F02012000FA02F241F8FE
:1014BC0023200C37BD465DF8047B704700E100E04B
:1014CC0080B483B000AF0346FB71094997F907302C
:1014DC005B09FA7902F01F02012000FA02F2403394
:1014EC0041F823200C37BD465DF8047B704700BFE4
:1014FC0000E100E080B483B000AF0346FB71094902
:10150C0097F907305B09FA7902F01F02012000FA03
:10151C0002F2603341F823200C37BD465DF8047BA2
:10152C00704700BF00E100E080B485B000AF786088
:10153C00184B1B68184A934210D9164B1B6803F5BD
:10154C00742303F23F23154AA2FB03239B0C7A68F6
:10155C0002FB03F3FB600823BB600AE07B68642298
:10156C0002FB03F3FB600B4B1B680D4AB2FBF3F35E
:10157C00BB6007E000BF00BF00BF00BFFA68BB68DC
:10158C00D31AFB60FB68002BF4DC1437BD465DF806
:10159C00047B70473C100110FF083D0083DE1B43A9
:1015AC000008AF2F80B485B000AF0346FB71002359
:1015BC00FB600BE0FA790E49FB680B441B785BB2BD
:1015CC009A4200D105E0FB680133FB60FB680B2BF2
:1015DC00F0D9FB680C2B02D14FF0FF3301E0FB6814
:1015EC005B0018461437BD465DF8047B704700BF9E
:1015FC002808011080B500AF002002F06FFD0246F4
:10160C00014B1A6080BD00BF3C10011080B400AFCC
:10161C00114B124AC3F840210F4B4FF0AA42C3F8AA
:10162C0044210D4B5F22C3F848210B4B4AF20F5259
:10163C00C3F84C21084B4AF2A002C3F85021064BC8
:10164C000022C3F85421044B0022C3F85821BD4694
:10165C005DF8047B704700BF00A00440555555AAA7
:10166C0080B483B000AF0346FB71FB795A2B01D9D0
:10167C00402302E0FB79044AD35C18460C37BD4684
:10168C005DF8047B704700BF3408011080B483B050
:10169C0000AF8A4B1C337B607B681C331B78002BA0
:1016AC001FD04FF08043D3F8AC2142F00102C3F8B5
:1016BC00AC214FF08043D3F8AC2142F00402C3F8C4
:1016CC00AC214FF08043D3F8AC2342F00102C3F8B5
:1016DC00AC234FF08043D3F8AC2342F00402C3F8A0
:1016EC00AC237B6802331B78002B0ED17B68033351
:1016FC001B78002B09D17B681B331B78002B04D182
:10170C007B6804331B78002B0FD04FF08043D3F849
:10171C00802142F48012C3F880214FF08043D3F82B
:10172C00802342F48012C3F880237B680B331B7830
:10173C00002B3BD17B680E331B78002B36D17B689A
:10174C000F331B78002B31D17B6810331B78002BA7
:10175C002CD17B6811331B78002B27D17B6812337B
:10176C001B78002B22D17B6813331B78002B1DD1E7
:10177C007B6814331B78002B18D17B6815331B78CE
:10178C00002B13D17B6816331B78002B0ED17B6892
:10179C0017331B78002B09D17B6818331B78002B6F
:1017AC0004D17B6819331B78002B1FD04FF080437A
:1017BC00D3F8842142F00102C3F884214FF0804316
:1017CC00D3F8842142F00202C3F884214FF0804305
:1017DC00D3F8842342F00102C3F884234FF08043F2
:1017EC00D3F8842342F00202C3F884237B680633C7
:1017FC001B78002B18D17B6807331B78002B13D177
:10180C007B6809331B78002B0ED17B680A331B785D
:10181C00002B09D17B680C331B78002B04D17B681F
:10182C000D331B78002B1FD04FF08043D3F8882149
:10183C0042F48032C3F888214FF08043D3F8BC21A6
:10184C0042F00102C3F8BC214FF08043D3F8882347
:10185C0042F48032C3F888234FF08043D3F8BC2382
:10186C0042F00102C3F8BC237B6808331B78002BC1
:10187C001FD04FF08043D3F8882142F48072C3F814
:10188C0088214FF08043D3F8882142F40072C3F8CA
:10189C0088214FF08043D3F8882342F48072C3F838
:1018AC0088234FF08043D3F8882342F40072C3F8A6
:1018BC0088230C37BD465DF8047B7047B4000020CC
:1018CC0080B483B000AF784B1C337B607B680233F1
:1018DC001B78002B1ED17B6803331B78002B19D18E
:1018EC007B681B331B78002B14D17B6804331B786B
:1018FC00002B0FD14FF08043D3F8002342F4801219
:10190C00C3F800234FF08043D3F8002142F4801237
:10191C00C3F800217B680B331B78002B5BD17B68F1
:10192C000E331B78002B56D17B680F331B78002BA2
:10193C0051D17B6810331B78002B4CD17B68113351
:10194C001B78002B47D17B6812331B78002B42D1BC
:10195C007B6813331B78002B3DD17B6814331B78C9
:10196C00002B38D17B6815331B78002B33D17B6867
:10197C0016331B78002B2ED17B6817331B78002B6A
:10198C0029D17B6818331B78002B24D17B68193341
:10199C001B78002B1FD14FF08043D3F8042342F067
:1019AC000202C3F804234FF08043D3F8042342F01F
:1019BC000102C3F804234FF08043D3F8042142F012
:1019CC000202C3F804214FF08043D3F8042142F003
:1019DC000102C3F804217B6806331B78002B38D135
:1019EC007B6807331B78002B33D17B6809331B785A
:1019FC00002B2ED17B680A331B78002B29D17B68F6
:101A0C000C331B78002B24D17B680D331B78002BF7
:101A1C001FD14FF08043D3F83C2342F00102C3F8AE
:101A2C003C234FF08043D3F8082342F48032C3F8B0
:101A3C0008234FF08043D3F83C2142F00102C3F855
:101A4C003C214FF08043D3F8082142F48032C3F894
:101A5C0008217B6808331B78002B1FD14FF0804383
:101A6C00D3F8082342F40072C3F808234FF08043E4
:101A7C00D3F8082342F48072C3F808234FF0804354
:101A8C00D3F8082142F40072C3F808214FF08043C8
:101A9C00D3F8082142F48072C3F808210C37BD46F4
:101AAC005DF8047B704700BFB400002080B582B0A5
:101ABC0000AF0346FB71FB791C2B01D901239BE37F
:101ACC00D34AFB79134401221A77FFF7DFFDFB7928
:101ADC001C2B00F28D8301A252F823F0052100107B
:101AEC00611A001005210010871A0010B91A001095
:101AFC002B1B0010411B0010951B0010E91B001044
:101B0C001D1C00105F1C0010A11C0010CB1C001031
:101B1C00311D0010851D0010B91D0010ED1D0010A9
:101B2C001D1E0010831E0010C91E0010EB1E00109D
:101B3C00111F0010371F00105D1F0010831F0010B5
:101B4C009D1F0010C51F00103320001055200010E1
:101B5C004FF0804381225A604FF080430122C3F83A
:101B6C00A8214FF0804381225A624FF0804301221A
:101B7C00C3F8A8233FE34FF08043D3F8902142F001
:101B8C000802C3F890214FF08043D3F8902142F023
:101B9C000402C3F890214FF08043D3F8902342F015
:101BAC000402C3F8902326E34FF08043D3F880213E
:101BBC0042F00062C3F880214FF08043D3F88021BB
:101BCC0042F08062C3F880214FF08043D3F880212B
:101BDC0042F00072C3F880214FF08043D3F880218B
:101BEC0042F08072C3F880214FF08043D3F88021FB
:101BFC0042F40002C3F880214FF08043D3F88023D5
:101C0C0042F08072C3F880234FF08043D3F88023D6
:101C1C0042F00062C3F88023EDE24FF080430722CC
:101C2C00C3F8A0214FF080430F22C3F8A023E2E2B7
:101C3C004FF0804340F601025A604FF080434FF45E
:101C4C008032C3F888214FF0804343F20102C3F87D
:101C5C00BC214FF0804340F601025A624FF08043A2
:101C6C004FF48032C3F888234FF0804343F20102D3
:101C7C00C3F8BC23674BD3F8002242F00102C3F82F
:101C8C000022B8E24FF0804340F601025A604FF058
:101C9C0080434FF48032C3F888214FF080434CF2DC
:101CAC000102C3F8BC214FF0804340F601025A6296
:101CBC004FF080434FF48032C3F888234FF08043B9
:101CCC004CF20102C3F8BC23524BD3F8002242F071
:101CDC000202C3F800228EE24FF0804301225A60C8
:101CEC004FF080434C4AC3F884214FF080430122CB
:101CFC005A624FF08043484AC3F88423454BD3F8CB
:101D0C00002242F00402C3F8002274E24FF0804338
:101D1C0040F601025A604FF080434FF48032C3F812
:101D2C0088214FF080433122C3F8BC214FF080430F
:101D3C0040F601025A624FF080434FF48032C3F8F0
:101D4C0088234FF080433122C3F8BC2353E24FF079
:101D5C00804340F601025A604FF080434FF48032CA
:101D6C00C3F888214FF08043C122C3F8BC214FF047
:101D7C00804340F601025A624FF080434FF48032A8
:101D8C00C3F888234FF08043C122C3F8BC2332E24E
:101D9C004FF0804340F601025A604FF080431F4AD7
:101DAC00C3F884214FF0804340F601025A624FF091
:101DBC0080431A4AC3F884231DE24FF0804340F657
:101DCC0001025A604FF080434FF48032C3F88821EF
:101DDC004FF0804340F20132C3F8BC214FF08043F6
:101DEC0040F601025A624FF080434FF48032C3F840
:101DFC0088234FF0804340F20132C3F8BC23054BDB
:101E0C00D3F8002242F01002C3F80022F3E100BF25
:101E1C00B400002000A00440030000C00300000335
:101E2C004FF0804340F601025A604FF080434FF46C
:101E3C008032C3F888214FF0804340F60142C3F84A
:101E4C00BC214FF0804340F601025A624FF08043B0
:101E5C004FF48032C3F888234FF0804340F60142A0
:101E6C00C3F8BC23DE4BD3F8002242F02002C3F8A7
:101E7C000022C0E14FF0804301225A604FF08043B2
:101E8C00D84AC3F884214FF0804301225A624FF0A4
:101E9C008043D44AC3F88423D14BD3F8002242F0B8
:101EAC004002C3F80022A6E14FF0804301225A60A1
:101EBC004FF08043CC4AC3F884214FF08043012279
:101ECC005A624FF08043C84AC3F88423C44BD3F8FA
:101EDC00002242F08002C3F800228CE14FF08043D4
:101EEC0001225A604FF080431322C3F884214FF033
:101EFC0080432022C3F884214FF0804301225A6290
:101F0C004FF080431322C3F8842374E14FF08043D5
:101F1C0001225A604FF080438322C3F884214FF092
:101F2C008043D3F8842142F40072C3F884214FF02B
:101F3C008043D3F8842142F40062C3F884214FF02B
:101F4C008043D3F8842142F40052C3F884214FF02B
:101F5C008043D3F8842142F40042C3F884214FF02B
:101F6C00804301225A624FF080438322C3F88423BA
:101F7C0041E14FF0804301225A604FF080439B4A6D
:101F8C00C3F884214FF08043D3F8842142F400122B
:101F9C00C3F884214FF08043D3F8842142F400022B
:101FAC00C3F884214FF0804301225A624FF08043E2
:101FBC008E4AC3F884231EE14FF08043D3F8882166
:101FCC0042F00102C3F888214FF08043D3F88823F4
:101FDC0042F00102C3F888230DE14FF08043012247
:101FEC005A604FF080431022C3F888214FF0804391
:101FFC0001225A624FF080431022C3F88823FAE082
:10200C004FF0804301225A604FF080432022C3F8E6
:10201C0088214FF0804301225A624FF080432022E6
:10202C00C3F88823E7E04FF0804301225A604FF059
:10203C0080434022C3F888214FF0804301225A622A
:10204C004FF080434022C3F88823D4E04FF0804304
:10205C0001225A604FF080438022C3F888214FF050
:10206C00804301225A624FF080438022C3F88823B8
:10207C00C1E04FF080435A6842F400725A604FF04E
:10208C0080435A6A42F400725A62B4E04FF08043C3
:10209C005A6842F480625A604FF080435A6A42F4A4
:1020AC0080625A624E4BD3F8002242F48072C3F81D
:1020BC000022A0E04FF080435A6842F001025A60BF
:1020CC004FF080435A6A42F001025A624FF080434B
:1020DC0003F5005310331A6842F001021A604FF0F6
:1020EC00804303F5005330331A6842F001021A6042
:1020FC004FF08043D3F8842142F00402C3F88421CA
:10210C004FF08043D3F8842342F00402C3F88423B5
:10211C004FF08043D3F8842342F00802C3F88423A1
:10212C0069E04FF08043D3F8802142F48002C3F879
:10213C0080214FF08043D3F8802342F48002C3F80F
:10214C00802358E04FF080435A6842F480725A6002
:10215C004FF08043D3F8AC2142F00102C3F8AC211C
:10216C004FF08043D3F8AC2142F00402C3F8AC2109
:10217C004FF08043D3F8AC2142F00802C3F8AC21F5
:10218C004FF08043D3F8AC2142F01002C3F8AC21DD
:10219C004FF08043D3F8AC2342F01002C3F8AC23C9
:1021AC000120FFF7C1F94FF08043D3F8AC2342F084
:1021BC000102C3F8AC234FF08043D3F8AC2342F0B8
:1021CC000402C3F8AC234FF08043D3F8AC2342F0A5
:1021DC000802C3F8AC230120FFF7A6F90BE000BFFF
:1021EC0000A004400300000C0300003003000800B2
:1021FC00012301E000BF002318460837BD4680BD0F
:10220C0080B582B000AF0346FB71FB791C2B00F24A
:10221C007D8201A252F823F09D210010A121001013
:10222C0025260010B7210010E92100105B220010B8
:10223C007122001099220010C1220010E922001016
:10224C00FF220010152300102F230010572300101D
:10225C007F230010A7230010CF230010EF230010C2
:10226C00452400107F240010A1240010B724001076
:10227C00CD240010E3240010F924001013250010C5
:10228C003B2500106D2500108F25001001234AE21C
:10229C004FF080430122C3F828234FF080430122E2
:1022AC00C3F8282137E24FF08043D3F8102342F0D3
:1022BC000402C3F810234FF08043D3F8102142F0EE
:1022CC000802C3F810214FF08043D3F8102142F0DC
:1022DC000402C3F810211EE24FF08043D3F8002310
:1022EC0042F08072C3F800234FF08043D3F80023F0
:1022FC0042F00062C3F800234FF08043D3F8002172
:10230C0042F00062C3F800214FF08043D3F8002163
:10231C0042F08062C3F800214FF08043D3F80021D3
:10232C0042F00072C3F800214FF08043D3F8002133
:10233C0042F08072C3F800214FF08043D3F80021A3
:10234C0042F40002C3F80021E5E14FF080430F2274
:10235C00C3F820234FF080430722C3F82021DAE191
:10236C004FF080434FF44052C3F83C234FF080436E
:10237C004FF44052C3F83C21E54BD3F8002222F035
:10238C000102C3F80022C6E14FF080434FF44042F3
:10239C00C3F83C234FF080434FF44042C3F83C2138
:1023AC00DB4BD3F8002222F00202C3F80022B2E188
:1023BC004FF080434FF44062C3F808234FF0804342
:1023CC004FF44062C3F80821D14BD3F8002222F01D
:1023DC000402C3F800229EE14FF080433022C3F880
:1023EC003C234FF080433022C3F83C2193E14FF063
:1023FC008043C022C3F83C234FF08043C022C3F873
:10240C003C2188E14FF080434FF04052C3F8042345
:10241C004FF080434FF04052C3F804217BE14FF062
:10242C0080434FF44072C3F83C234FF080434FF489
:10243C004072C3F83C21B64BD3F8002222F01002B4
:10244C00C3F8002267E14FF080434FF44062C3F8B9
:10245C003C234FF080434FF44062C3F83C21AC4B1B
:10246C00D3F8002222F02002C3F8002253E14FF0EF
:10247C0080434FF04062C3F804234FF080434FF089
:10248C004062C3F80421A24BD3F8002222F0400290
:10249C00C3F800223FE14FF080434FF04052C3F8A5
:1024AC0004234FF080434FF04052C3F80421984B63
:1024BC00D3F8002222F08002C3F800222BE14FF067
:1024CC0080431022C3F804234FF080432022C3F82A
:1024DC0004214FF080431022C3F804211BE14FF07C
:1024EC0080438022C3F804234FF08043D3F80421A7
:1024FC0042F40072C3F804214FF08043D3F8042156
:10250C0042F40062C3F804214FF08043D3F8042155
:10251C0042F40052C3F804214FF08043D3F8042155
:10252C0042F40042C3F804214FF080438022C3F8E8
:10253C000421F0E04FF080434FF40022C3F8042351
:10254C004FF08043D3F8042142F40012C3F8042165
:10255C004FF08043D3F8042142F40002C3F8042165
:10256C004FF080434FF40022C3F80421D3E04FF026
:10257C008043D3F8082342F00102C3F808234FF03C
:10258C008043D3F8082142F00102C3F80821C2E0CD
:10259C004FF080431022C3F808234FF080431022E1
:1025AC00C3F80821B7E04FF080432022C3F808237A
:1025BC004FF080432022C3F80821ACE04FF0804359
:1025CC004022C3F808234FF080434022C3F808216F
:1025DC00A1E04FF080438022C3F808234FF08043E2
:1025EC008022C3F8082196E04FF080431A6A42F427
:1025FC0000721A624FF080431A6842F400721A603B
:10260C0089E04FF080431A6A42F480621A624FF0FC
:10261C0080431A6842F480621A603D4BD3F8002262
:10262C0022F48072C3F8002275E04FF08043D3F897
:10263C00042342F00402C3F804234FF08043D3F880
:10264C00042342F00802C3F804234FF08043D3F86C
:10265C00042142F00402C3F804215CE04FF08043F3
:10266C00D3F8002342F48002C3F800234FF08043D8
:10267C00D3F8002142F48002C3F800214BE04FF064
:10268C008043D3F82C2342F00102C3F82C234FF0E3
:10269C008043D3F82C2342F00402C3F82C234FF0D0
:1026AC008043D3F82C2342F00802C3F82C234FF0BC
:1026BC008043D3F82C2342F01002C3F82C234FF0A4
:1026CC008043D3F82C2142F00102C3F82C214FF0A7
:1026DC008043D3F82C2142F00402C3F82C214FF094
:1026EC008043D3F82C2142F00802C3F82C214FF080
:1026FC008043D3F82C2142F01002C3F82C214FF068
:10270C0080431A6842F480721A6004E001230AE0E4
:10271C0000A0044000BF064AFB79134400221A773C
:10272C00FFF7CEF8002318460837BD4680BD00BF22
:10273C00B400002080B584B000AF03463960FB7153
:10274C00114BFB60FB681B681B7883F00103DBB249
:10275C00002B01D0012312E03B68002B05D1FB7943
:10276C001846FFF74DFD034609E03B68012B05D1E8
:10277C00FB791846FFF79AF9034600E00123184647
:10278C001037BD4680BD00BFA807011080B485B0CE
:10279C0000AF786039601F4BFB60FB681B681B78CF
:1027AC0083F00103DBB2002B01D001232BE07B680B
:1027BC00BB60BB681B2B01D9012324E03B68012BB8
:1027CC0001D901231FE03B68002B0DD04FF0804155
:1027DC004FF08043D3F88027BB68012000FA03F345
:1027EC001343C1F880370DE04FF080414FF0804328
:1027FC00D3F88027BB68012000FA03F3DB431340B6
:10280C00C1F88037002318461437BD465DF8047BA9
:10281C00704700BFA807011080B485B000AF034615
:10282C003960FB71194BFB60FB681B681B7883F0EC
:10283C000103DBB2002B01D0012320E03B68012B0C
:10284C0001D901231BE0FB790F2B02D0102B09D0EF
:10285C0012E04FF080413B68C3F1010201F50C53CB
:10286C001A600BE04FF080413B68C3F1010201F5A7
:10287C000C5310331A6001E0012300E000231846CA
:10288C001437BD465DF8047B704700BFA8070110E4
:10289C0080B485B000AF03463960FB71174BFB6009
:1028AC00FB681B681B7883F00103DBB2002B01D0A3
:1028BC0001231DE03B68012B01D9012318E0FB79B2
:1028CC000F2B02D0102B08D00FE04FF0804303F5F4
:1028DC000C5304333A681A6009E04FF0804303F557
:1028EC000C5314333A681A6001E0012300E0002312
:1028FC0018461437BD465DF8047B7047A8070110D5
:10290C0080B586B000AF03463960FB71264B7B6106
:10291C007B691B681B7883F00103DBB2002B01D0B1
:10292C0001233DE0FB791846FEF79AFE0346FB7443
:10293C00FB7C402B01D1012332E0FB7C1B4A5B006A
:10294C0013445B78632B01D1012329E0FB7C174AEC
:10295C0012F813309B0003F1804303F50C53FB601A
:10296C003B68002B0ED0FB681A68FB7C0F495B00A0
:10297C000B445B78194601238B40DB431A40FB6800
:10298C001A600CE0FB681A68FB7C08495B000B447E
:10299C005B78194601238B401A43FB681A600023AD
:1029AC0018461837BD4680BDA807011090080110C5
:1029BC0080B586B000AF0346FB710B46BB71134666
:1029CC007B712B4B7B617B691B681B7883F001034C
:1029DC00DBB2002B01D0012346E0FB791846FEF751
:1029EC003FFE0346FB74FB7C402B01D101233BE0F3
:1029FC00FB7C204A5B0013445B78632B01D10123E1
:102A0C0032E0BB79032B01D901232DE07B79022B1A
:102A1C0001D9012328E0FB7C164A12F813309A00E6
:102A2C00154B1344FB60FB681B68BB60FB7C114AB5
:102A3C005B0013445B781A460F239340DB43BA6860
:102A4C001340BB60BB799A007B791A44FB7C094923
:102A5C005B000B445B7802FA03F3BA681343BB6068
:102A6C00FB68BA681A60002318461837BD4680BD4B
:102A7C00A80701101009011000A1044080B485B012
:102A8C0000AF0346FB714FF08043D3F8C02542F4EE
:102A9C008052C3F8C0254FF0804303F5045308332C
:102AAC001A6842F010021A60FB79012B0AD0022B33
:102ABC0010D0002B16D14FF08043D3F8E435DBB2A5
:102ACC00FB6017E04FF08043D3F8E4351B0ADBB210
:102ADC00FB600FE04FF08043D3F8E4351B0CDBB206
:102AEC00FB6007E04FF08043D3F8E4351B0EDBB2FC
:102AFC00FB6000BF4FF08043FA68D2B203F5065377
:102B0C000833D2B2196821F0FF010A431A604FF062
:102B1C00804303F5045308331A6822F010021A603C
:102B2C001437BD465DF8047B704700BF80B485B098
:102B3C0000AF124BFB60EFF310837B607B68BB60D4
:102B4C0072B6FB681B6893F83630002B0ED04FF032
:102B5C008043D3F884341B0B03F00F03DBB2002B40
:102B6C0004D000BF064B9B69002BFBD1BB681846F9
:102B7C001437BD465DF8047B704700BFA8070110F1
:102B8C000000044080B483B000AF78607B68002BF9
:102B9C0000D162B60C37BD465DF8047B704700BFB0
:102BAC0080B483B000AF78607B6893F83630002B2C
:102BBC000ED04FF08043D3F884341B0B03F00F037B
:102BCC00DBB2002B04D000BF044B9B69002BFBD164
:102BDC000C37BD465DF8047B704700BF0000044015
:102BEC0080B483B000AF78607B681A037B681343B2
:102BFC0003F00F137B607B689A017B68134303F02F
:102C0C0003337B607B68DA007B68134303F011337A
:102C1C007B607B6818460C37BD465DF8047B7047BB
:102C2C0080B483B000AF78607B68DA087B681343AC
:102C3C0003F003337B607B689A097B68134303F0D2
:102C4C000F137B607B681A0B7B681343DBB27B60D2
:102C5C007B6818460C37BD465DF8047B704700BF97
:102C6C0080B584B000AF786039607B685A083B68E7
:102C7C00DB431A4079683B680B401343FB60F868F0
:102C8C00FFF7CEFF034618461037BD4680BD00BF88
:102C9C0080B584B000AF786039607B685A087B6877
:102CAC00134003F01133FB60FB68002B08D0F8686D
:102CBC00FFF7B6FFF8603B68DB43FA681340FB6034
:102CCC00FB6818461037BD4680BD00BF80B58AB082
:102CDC0000AFF860B9607A603B60BB68D3F8083429
:102CEC007B62F868796AFFF7D3FF3862BB68D3F868
:102CFC000C34FB61F869FFF773FFF861F868F96948
:102D0C00FFF7AEFFB861BA697B6A1343BB61BB685E
:102D1C00D3F800347B61BB68D3F804343B617A6927
:102D2C003B691343DB43BA691340BB617B68BA69E7
:102D3C001A603B683A6A1A603B6BFA691A6028376A
:102D4C00BD4680BD80B483B000AF084B1B687B6070
:102D5C000023BA8862F30F03FA8862F31F43184604
:102D6C000C37BD465DF8047B704700BF900901101D
:102D7C0080B584B000AF7860784BFB60FB681B6853
:102D8C00BB60BB681B78002B01D00123E1E0BB6862
:102D9C0001221A70BB687A685A604FF0804303F5C1
:102DAC0004531B689B0803F00103DBB2002B03D117
:102DBC00BB6800221A7202E0BB6802221A724FF042
:102DCC00804303F5045304331B6803F00103DBB2A7
:102DDC00002B03D1BB6800225A7202E0BB680222AE
:102DEC005A72BB6802229A72BB680022DA72BB6804
:102DFC0002221A73BB6802225A73BB6800229A73B0
:102E0C00BB680022DA73BB68554A1A61BB680122A1
:102E1C001A77BB68012283F821204FF0804303F519
:102E2C0015531A6842F001021A604FF0804303F503
:102E3C0015531A6842F002021A604FF0804303F5F2
:102E4C0011531A6822F002021A604FF0804303F506
:102E5C0011531A6822F001021A604FF0804340F6B9
:102E6C00BF721A614FF08043D3F8082222F001029E
:102E7C00C3F808220120042100F04EFB132001218D
:102E8C00FFF758FCFEF7C2FBFEF7B4FBBB681B7ADE
:102E9C00002B0DD14FF08043D3F8C02522F4806273
:102EAC00C3F8C0254FF0804303F5065301221A6086
:102EBC00BB685B7A002B0ED14FF08043D3F8C02552
:102ECC0022F40062C3F8C0254FF0804303F506538B
:102EDC00043301221A604FF08043D3F800379B086B
:102EEC0003F00303DBB21846FFF7C8FD4FF0804335
:102EFC0003F5085304331A68BB685A614FF08043DA
:102F0C0003F5085304334FF0FF321A604FF0804240
:102F1C004FF08043D3F8283543F0004343F480232B
:102F2C00C2F828354FF080434FF00912C3F84427FC
:102F3C004FF08042D2F8483723F4FF3323F48073E8
:102F4C00C2F848374C20FEF7D5FA4C20FEF7A0FA11
:102F5C00002318461037BD4680BD00BFA8070110DE
:102F6C00006CDC0280B400AF00231846BD465DF84F
:102F7C00047B704780B584B000AF0346FB71974B60
:102F8C00FB60FB681B68BB60BB681B7883F00103AC
:102F9C00DBB2002B01D001231CE1FB79052B01D9FD
:102FAC00012317E1FB79BA6813441B7A002B01D07B
:102FBC0000230FE1FB79042B0FD14FF08043D3F8A2
:102FCC00002542F00102C3F800254FF47A70FEF799
:102FDC00ABFABB6802221A73FBE0FB79002B1AD107
:102FEC004FF0804303F504531A6842F001021A6053
:102FFC007B48FEF799FA4FF0804303F504531A68A7
:10300C0042F004021A604FF4FA60FEF78DFABB68C6
:10301C0002221A72DDE0FB79012B10D14FF08043B4
:10302C0003F5045304331A6842F001021A604FF49A
:10303C00FA70FEF779FABB6802225A72C9E0FB7982
:10304C00052B45D1042000F0A5F90346022B01D035
:10305C000123BFE04FF0804303F5115304331A688A
:10306C0042F001021A604FF0804303F51153043310
:10307C001A6842F002021A604FF0804303F51553B0
:10308C0004331A6822F001021A604FF0804303F5F2
:10309C00155304331A6822F002021A604FF0804371
:1030AC00D3F8082542F00102C3F808256420FEF786
:1030BC003BFA4FF08043D3F8082522F00102C3F805
:1030CC0008256420FEF730FABB6802225A7380E0B0
:1030DC00FB79032B7BD1062000F05CF90346022B15
:1030EC0001D0012376E04FF0804303F500531033F9
:1030FC001A6842F480721A604FF08043D3F8C821EA
:10310C0042F48032C3F8C8214FF0804303F51153C9
:10311C0008331A6842F001021A604FF0804303F53D
:10312C00115308331A6842F002021A609620FEF717
:10313C00FBF94FF0804303F5155308331A6822F05E
:10314C0001021A604FF0804303F5155308331A68D7
:10315C0022F002021A60BB68DB7B002B1FD04FF001
:10316C008043D3F8102542F00102C3F810254FF02C
:10317C008043D3F8142542F00102C3F814256420CF
:10318C00FEF7D2F94FF08043D3F8142522F0010258
:10319C00C3F814254FF4FA60FEF7C6F913E04FF0AC
:1031AC008043D3F8102542F00102C3F810254FF0EC
:1031BC008043D3F8142542F00402C3F814254FF4CD
:1031CC00FA50FEF7B1F9BB680222DA7201E0012372
:1031DC0000E0002318461037BD4680BDA80701103B
:1031EC0040420F0080B485B000AF0346FB71684BC2
:1031FC00FB60FB681B681B7883F00103DBB2002BC0
:10320C0001D00123BDE0FB79052B01D90123B8E0E6
:10321C00FB681A68FB7913441B7A002B01D100233D
:10322C00AFE0FB79042B0CD1FB681B6800221A73EE
:10323C004FF08043D3F8002522F00102C3F800259B
:10324C009EE0FB79002B14D1FB681B6800221A72DC
:10325C004FF0804303F504531A6822F004021A60FD
:10326C004FF0804303F504531A6822F001021A60F0
:10327C0086E0FB79012B0DD1FB681B6800225A728A
:10328C004FF0804303F5045304331A6822F0010213
:10329C001A6075E0FB79052B30D1FB681B680022A6
:1032AC005A734FF08043D3F8082542F00102C3F85B
:1032BC0008254FF0804303F5155304331A6842F088
:1032CC0001021A604FF0804303F5155304331A685A
:1032DC0042F002021A604FF0804303F5115304339D
:1032EC001A6822F002021A604FF0804303F5115362
:1032FC0004331A6822F001021A6041E0FB79032BB7
:10330C003CD1FB681B680022DA724FF08043D3F883
:10331C00102522F00102C3F810254FF0804303F56D
:10332C00155308331A6842F001021A604FF08043BB
:10333C0003F5155308331A6842F002021A604FF075
:10334C00804303F5115308331A6822F002021A6005
:10335C004FF0804303F5115308331A6822F0010231
:10336C001A604FF08043D3F8482142F48032C3F8FE
:10337C004821FB681B680122DA7301E0012300E09D
:10338C00002318461437BD465DF8047B704700BF18
:10339C00A807011080B485B000AF0346FB71174B32
:1033AC00FB60FB681B681B7883F00103DBB2002B0E
:1033BC0001D000231BE0FB79062B01D9002316E07A
:1033CC00FB79062B0ED14FF0804303F502531B689B
:1033DC0003F00103DBB2002B02D00123FB7101E0EF
:1033EC000023FB71FB681A68FB7913441B7A18469F
:1033FC001437BD465DF8047B704700BFA807011069
:10340C0080B584B000AF78607B68082B04D0082BA3
:10341C0008D30A2B06D802E00423FB7305E005232E
:10342C00FB7302E07B68FB7300BFFB7B1846FFF766
:10343C00B1FF034618461037BD4680BD80B487B037
:10344C0000AF7860304B3B613B691B68FB60FB68ED
:10345C001B7883F00103DBB2002B01D001234DE07C
:10346C00FB681A697B689A4201D1002346E07B68AD
:10347C00264A934208D0264A934208D0254A9342C2
:10348C0008D191237B6107E092237B6104E09323B5
:10349C007B6101E0012331E0FB685B7B002B01D0F9
:1034AC0001232BE04FF08043D3F8082542F0004273
:1034BC00C3F808254FF08043D3F8082542F00102E9
:1034CC00C3F808254FF080437A69D2B202F00302A8
:1034DC00D2B202F00302D3F80C1521F003010A4317
:1034EC00C3F80C254FF08043D3F8082522F0004296
:1034FC00C3F80825FB687A681A61002318461C3744
:10350C00BD465DF8047B7047A807011000512502E9
:10351C00006CDC0200366E0180B586B000AF03464D
:10352C003960FB71AE4B3B613B691B681B7883F0C8
:10353C000103DBB2002B01D0012371E23B680A2BA3
:10354C0002D83B687B611FE03B680C2B02D10B233C
:10355C007B6119E03B68122B02D10C237B6113E0D9
:10356C003B68182B02D10D237B610DE03B68242BAB
:10357C0002D10E237B6107E03B68302B02D10F2375
:10358C007B6101E001234BE2FB790F2B00F22681DA
:10359C0001A252F823F000BFF5360010F5360010EA
:1035AC00F5360010F5360010F5360010E934001031
:1035BC00ED360010ED360010F5360010ED3600102B
:1035CC00F5360010F5360010F5360010E934001011
:1035DC00F5340010333600107B69022B01D901231E
:1035EC001EE200E1092000F0BBFC0346023B082B65
:1035FC0000F2948001A252F823F000BF3135001084
:10360C00FD3500104F350010A13500102D3600107F
:10361C002D3600104F350010A1350010A1350010CB
:10362C007B69002B0AD07B69012B07D07B69022BAD
:10363C0004D07B69042B01D00123F1E170E07B699C
:10364C00002B24D07B69012B08D07B69022B05D081
:10365C007B69042B02D07B69062B04D10920042141
:10366C0000F0D8FA13E07B690B2B04D1092004215C
:10367C0000F0D0FA0BE07B69032B06D1092008215E
:10368C0000F0C8FA01237B6101E00123C8E147E0A7
:10369C007B69002B29D07B69022B0BD07B69042B17
:1036AC0008D07B69062B05D07B69082B02D07B697F
:1036BC000A2B04D90920052100F0ACFA15E07B692E
:1036CC00032B06D10920092100F0A4FA01237B6108
:1036DC000BE07B69092B06D109200A2100F09AFA2C
:1036EC0001237B6101E001239AE119E07B69002B46
:1036FC0013D07B69042B10D07B69062B0DD07B6912
:10370C00082B0AD07B690B2B07D07B690D2B04D0BF
:10371C007B690F2B01D0012382E101E001237FE1C2
:10372C0061E00A2000F01CFC0346023B082B52D837
:10373C0001A252F823F000BF6D360010CF360010F6
:10374C007936001099360010E7360010E736001075
:10375C0079360010E7360010993600107B69022B81
:10376C0001D901235CE138E07B69002B0BD07B692C
:10377C00032B06D10A20082100F04CFA01237B61AF
:10378C0001E001234CE128E07B69002B16D07B691A
:10379C00062B02D07B690B2B04D10A20052100F0EB
:1037AC0039FA0BE07B69092B06D10A200A2100F0BB
:1037BC0031FA01237B6101E0012331E10DE07B69EA
:1037CC00002B07D07B69062B04D07B690B2B01D017
:1037DC00012325E101E0012322E104E001231FE1A3
:1037EC00A807011000BFFB790F2B00F2118101A279
:1037FC0052F823F04537001073370010A337001030
:10380C00C7370010EB3700100F38001021390010AB
:10381C0021390010333800102139001055380010B0
:10382C007738001099380010BB380010DD380010C4
:10383C00FF380010FFF77AF9F8604FF080437A698F
:10384C00D2B202F00F02D2B202F00F02D3F88414FB
:10385C0021F00F010A43C3F88424F868FFF792F9AA
:10386C00D8E0FFF763F9F8604FF080437A69D2B281
:10387C0002F00F02D2B202F00F021203D3F884143A
:10388C0021F470410A43C3F88424F868FFF77AF9ED
:10389C00C0E04FF080437A69D2B202F00F02D2B28C
:1038AC0002F00F021204D3F8841421F470210A439D
:1038BC00C3F88424AEE04FF080437A69D2B202F0B0
:1038CC000F02D2B202F00F021205D3F8841421F4C5
:1038DC0070010A43C3F884249CE04FF080437A695A
:1038EC00D2B202F00F02D2B202F00F021201D3F8E0
:1038FC00841421F0F0010A43C3F884248AE04FF0C9
:10390C0080437A69D2B202F00F02D2B202F00F02F7
:10391C001202D3F8841421F470610A43C3F884248E
:10392C0078E04FF080437A69D2B202F00F02D2B243
:10393C0002F00F02D3F88C1421F00F010A43C3F8E4
:10394C008C2467E04FF080437A69D2B202F00F0208
:10395C00D2B202F00F02D3F8941421F00F010A43F3
:10396C00C3F8942456E04FF080437A69D2B202F047
:10397C000F02D2B202F00F02D3F8981421F00F010B
:10398C000A43C3F8982445E04FF080437A69D2B2D9
:10399C0002F00F02D2B202F00F02D3F89C1421F005
:1039AC000F010A43C3F89C2434E04FF080437A693A
:1039BC00D2B202F00F02D2B202F00F02D3F890147E
:1039CC0021F00F010A43C3F8902423E04FF0804309
:1039DC007A69D2B202F00F02D2B202F00F02D3F81F
:1039EC00A01421F00F010A43C3F8A02412E04FF0F9
:1039FC0080437A69D2B202F00F02D2B202F00F0207
:103A0C00D3F8A41421F00F010A43C3F8A42401E055
:103A1C00012305E0FB79002B01D1FDF7EBFD002321
:103A2C0018461837BD4680BD80B586B000AF03463A
:103A3C00FB71764B3B613B691B681B7883F0010380
:103A4C00DBB2002B01D00023DBE0FB790F2B00F263
:103A5C00CC8001A252F823F0A9390010BB39001018
:103A6C00CF390010E3390010F73900100B3A001071
:103A7C00F53A0010F53A00101F3A0010F53A001014
:103A8C00313A0010433A0010553A0010673A0010D2
:103A9C00793A0010BD3A00104FF08043D3F88434CB
:103AAC0003F00F03DBB27B61A2E04FF08043D3F84D
:103ABC0084341B0B03F00F03DBB27B6198E04FF0F7
:103ACC008043D3F884341B0C03F00F03DBB27B610F
:103ADC008EE04FF08043D3F884341B0D03F00F03BA
:103AEC00DBB27B6184E04FF08043D3F884341B0954
:103AFC0003F00F03DBB27B617AE04FF08043D3F825
:103B0C0084341B0A03F00F03DBB27B6170E04FF0CF
:103B1C008043D3F88C3403F00F03DBB27B6167E096
:103B2C004FF08043D3F8943403F00F03DBB27B6186
:103B3C005EE04FF08043D3F8983403F00F03DBB210
:103B4C007B6155E04FF08043D3F89C3403F00F03B6
:103B5C00DBB27B614CE04FF08043D3F8903403F040
:103B6C000F03DBB27B6143E04FF08043D3F8A0340A
:103B7C0003F00F03DBB27B617B69012B15D10920AC
:103B8C0000F0EEF9F860FB68082B02D103237B618F
:103B9C000BE0FB68092B02D103237B6105E0FB687A
:103BAC000A2B02D109237B6122E021E04FF08043F4
:103BBC00D3F8A43403F00F03DBB27B617B69012BD8
:103BCC000FD10A2000F0CCF9F860FB68082B02D169
:103BDC0003237B6105E0FB680A2B02D109237B617F
:103BEC0006E005E001237B6102E000237B6100BF5E
:103BFC007B690A2B04D97B690B3B054AD35C7B613F
:103C0C007B6918461837BD4680BD00BFA807011058
:103C1C009409011080B586B000AF03463960FB7182
:103C2C00B74B3B613B691B681B7883F00103DBB22C
:103C3C00002B01D001237BE1FB790A2B00F2BC8025
:103C4C0001A252F823F000BF853B0010CD3B0010C1
:103C5C00EB3B0010773C00109D3C0010853B0010A6
:103C6C00853B0010853B0010AD3C0010093C00105A
:103C7C00093C00103B68023B042B1CD801A252F8F3
:103C8C0023F000BFA93B0010BB3B0010AF3B001062
:103C9C00B53B0010C13B001000237B610DE00123FC
:103CAC007B610AE002237B6107E003237B6104E074
:103CBC0004237B6101E001233AE17FE03B68002BA8
:103CCC0002D0012B03D005E000237B6104E001232B
:103CDC007B6101E001232BE170E03B68022B02D0F9
:103CEC00042B03D005E000237B6104E001237B61FE
:103CFC0001E001231CE161E03B68023B082B2FD85B
:103D0C0001A252F823F000BF3D3C00104F3C0010C4
:103D1C00433C0010493C0010713C0010713C0010F9
:103D2C00553C00105B3C00106B3C001000237B6189
:103D3C0018E001237B6115E002237B6112E0032371
:103D4C007B610FE005237B610CE03B68092B02D102
:103D5C0006237B6106E00123EAE007237B6101E097
:103D6C000123E5E02AE03B68042B06D0062B07D0A4
:103D7C00022B08D100237B6107E001237B6104E067
:103D8C0004237B6101E00123D2E017E03B68022BA6
:103D9C0002D100237B6111E00123C9E03B68032BB6
:103DAC0004D0052B05D100237B6104E001237B614A
:103DBC0001E00123BCE001E00123B9E03B68062BE4
:103DCC0010D14FF0804303F5005310331A6842F4BE
:103DDC0080721A604FF08043D3F8C82142F0010280
:103DEC00C3F8C821FB790A2B00F2A08001A252F87B
:103DFC0023F000BF313D00104D3D0010C73D0010B9
:103E0C00D33D00103D3E0010DF3D0010EB3D001097
:103E1C00F73D0010033E0010153E0010293E001027
:103E2C00FEF784FEF8604FF080427B69C2F80434E0
:103E3C00F868FEF7A7FEFDF7DDFB78E04FF0804356
:103E4C0003F5005310331B681B0A03F00103DBB2AC
:103E5C00BB604FF0804303F500531A6842F0010237
:103E6C001A604FF0804303F500531A6842F48072D5
:103E7C001A604FF0804303F502537A691A604FF0D1
:103E8C00804303F5005310331A6842F001021A60A4
:103E9C004FF08043BA68D2B202F00102D2B203F5FD
:103EAC000053103302F001021202196821F48071E0
:103EBC000A431A603BE04FF080427B69C2F8083439
:103ECC0035E04FF080427B69C2F80C342FE04FF0A4
:103EDC0080427B69C2F8143429E04FF080427B6940
:103EEC00C2F8183423E04FF080427B69C2F81C34CE
:103EFC001DE04FF080427B69C2F8103417E000BF20
:103F0C00A80701100E200021FFF706FB4FF080429E
:103F1C007B69C2F820340AE00F200021FFF7FCFA7D
:103F2C004FF080427B69C2F8243400E000BF0023CC
:103F3C0018461837BD4680BD80B582B000AF034629
:103F4C000A46FB711346BB71BB79FA7910461946C8
:103F5C00FFF760FE034618460837BD4680BD00BF1C
:103F6C0080B483B000AF0346FB71FB790A2B00F2DF
:103F7C00928001A252F823F0B53E0010CD3E001005
:103F8C00E53E0010FD3E0010153F0010193F0010DB
:103F9C00313F0010493F0010613F0010773F001087
:103FAC008F3F00104FF08043D3F8043403F0070325
:103FBC00DBB21A463B4B53F822306DE04FF0804396
:103FCC0003F502531B6803F00103DBB21A46364BB0
:103FDC009B5C61E04FF08043D3F8083403F001039D
:103FEC00DBB21A462F4B53F8223055E04FF080438A
:103FFC00D3F80C3403F00703DBB21A46294B53F801
:10400C00223049E0022347E04FF08043D3F81434C8
:10401C0003F00703DBB21A46224B53F822303BE085
:10402C004FF08043D3F8183403F00703DBB21A4681
:10403C001C4B53F822302FE04FF08043D3F81C3444
:10404C0003F00703DBB21A46164B53F8223023E079
:10405C004FF08043D3F8103403F00103DBB21A465F
:10406C00124B9B5C18E04FF08043D3F8203403F0E4
:10407C000703DBB21A460B4B53F822300CE04FF01F
:10408C008043D3F8243403F00703DBB21A46054B04
:10409C0053F8223000E0072318460C37BD465DF874
:1040AC00047B70479C090110BC090110C009011068
:1040BC0080B483B000AF0346FB71FB790F2B01D9A1
:1040CC000B2302E0FB79044AD35C18460C37BD463F
:1040DC005DF8047B704700BFC409011080B588B03F
:1040EC0000AF0346FB713F4B7B610023FB617B6997
:1040FC001B681B7883F00103DBB2002B01D000237B
:10410C006CE0FB790F2B01D9002367E0FB79184693
:10411C00FFF78AFCB861BB69002B01D100235DE07D
:10412C00FB79012B08D0FB79022B05D0FB79032BF3
:10413C0002D0FB79052B07D10020FFF775FC024656
:10414C00BB6902FB03F3BB61FB791846FFF7B0FFB9
:10415C000346FB74FB7C1846FFF702FFF860F86817
:10416C00FFF74EF90346022B01D0002336E0FB6823
:10417C000A2B2CD801A252F823F000BFB940001032
:10418C00B9400010C1400010C7400010CF400010D3
:10419C00D5400010B9400010DF400010CF40001097
:1041AC00D5400010D54000104FF40043FB6111E0E6
:1041BC000D4BFB610EE04FF03773FB610AE00B4BCC
:1041CC00FB6107E07B691B681B69FB6102E0002354
:1041DC00FB6100BFFA69BB69B2FBF3F318462037E9
:1041EC00BD4680BDA807011000093D00001BB700AB
:1041FC0080B586B000AF03460A46FB711346BB710F
:10420C00334B7B617B691B683B613B691B7883F09B
:10421C000103DBB2002B01D0012355E0BB79032B4A
:10422C0001D9012350E0BB79032B07D1FB79022B79
:10423C0002D9FB79052B01D9012345E0FB791846FE
:10424C00FDF7B0F9F860FB68B3F1FF3F01D1012332
:10425C003AE0FB79022B0AD1BB79012B07D13B69E0
:10426C0093F82130002B02D00520FDF7C9FF00BFC9
:10427C00184B1B68002BFBD14FF080404FF0804354
:10428C00D3F81427FB68032101FA03F3DB43134033
:10429C00B979FA6801FA02F21343C0F81437FB68D3
:1042AC005B081A4601239340BB604FF08042BB6809
:1042BC00C2F8103700BF4FF08043D3F81027BB680B
:1042CC001340002BF7D1002318461837BD4680BD8C
:1042DC00A807011000E0004290B585B000AF04467D
:1042EC00084611461A462346FB710346BB710B4622
:1042FC007B7113463B71374BFB60FB681B681B786B
:10430C0083F00103DBB2002B01D001235EE0FB79CB
:10431C001846FDF747F9B860BB68B3F1FF3F01D110
:10432C00012353E0FB79022B21D9FB79052B1ED8F5
:10433C00BB79032B05D87B79032B02D83B79032B54
:10434C0001D9012342E04FF080404FF08043D3F875
:10435C002027BB68032101FA03F3DB431340B9792F
:10436C00BA6801FA02F21343C0F8203707E07B79F0
:10437C00022B02D83B79022B01D9012326E04FF006
:10438C0080404FF08043D3F82427BB68032101FA07
:10439C0003F3DB4313407979BA6801FA02F2134351
:1043AC00C0F824374FF080404FF08043D3F82827D3
:1043BC00BB68032101FA03F3DB4313403979BA6874
:1043CC0001FA02F21343C0F82837002318461437B9
:1043DC00BD4690BDA807011080B584B000AF034660
:1043EC00FB71214BFB60FB681B681B7883F001039E
:1043FC00DBB2002B01D0012332E0FB79BB60BB6840
:10440C00032B01D901232BE0FB791846FEF736FB71
:10441C0000BF4FF08043D3F81037002BF9D14FF089
:10442C008043BA68D2B202F00302D2B202F00302A5
:10443C00D3F8041721F003010A43C3F804274FF003
:10444C008043D3F8042722F0F002C3F80427074B6B
:10445C0001221A6000BF054B1B68002BFBD1002307
:10446C0018461037BD4680BDA807011000E0004279
:10447C0090B5ABB002AF0346FB71BC4BBB65BB6DDB
:10448C001B687B657B6D1B7883F00103DBB2002B13
:10449C0001D001239BE3FB790B2B71D801A252F8BD
:1044AC0023F000BFE5430010EB430010F94300106C
:1044BC000744001015440010234400103144001030
:1044CC003F4400104D4400105B4400106D4400103C
:1044DC007F44001030BF002379E30123C7F89C30E0
:1044EC000023C7F898304DE00223C7F89C30002316
:1044FC00C7F8983046E00323C7F89C300023C7F870
:10450C0098303FE00423C7F89C300123C7F898305B
:10451C0038E00523C7F89C300123C7F8983031E008
:10452C000723C7F89C300123C7F898302AE00823EA
:10453C00C7F89C300123C7F8983023E00923C7F84B
:10454C009C300123C7F898301CE00123C7F89C303D
:10455C000123C7F898300123FB7113E00223C7F83D
:10456C009C300123C7F898300223FB710AE0022328
:10457C00C7F89C300123C7F898300323FB7101E086
:10458C00012324E3EFF310837B637B6B3B6572B6F3
:10459C00002387F85F30FB79012B0AD14FF0804361
:1045AC00D3F88037C7F894304FF080430022C3F81B
:1045BC0080270023FB644FF08043FA6CD2B202F0E8
:1045CC000102D2B202F001021202D3F8041721F454
:1045DC0080710A43C3F804274FF08043D7F89C201E
:1045EC00D2B202F00F02D2B202F00F021201D3F8D3
:1045FC00041721F0F0010A43C3F80427D7F89830C8
:10460C00002B06D05A4A5A4B1B6943F00403136122
:10461C0005E0574A564B1B6923F004031361002332
:10462C003B670023FB660023BB66FB79022B57D943
:10463C004FF08043D3F884341B0B03F00F03DBB231
:10464C00002B4DD07B6D93F83030002B17D04FF0F2
:10465C00804303F51C531B68BB6407F1280207F168
:10466C00200407F118030093B86C42492346FEF767
:10467C002DFBBB6A3B673B6AFB66BB69BB667B6D0C
:10468C0093F83330002B2BD04FF0804303F51C53A1
:10469C0004331B687B647B6C03F440331A02796C23
:1046AC0043F233330B4013437B6407F1240207F1CD
:1046BC001C0407F114030093786C2F492346FEF772
:1046CC0005FB7B6A1B063A6F13433B67FB691B06B2
:1046DC00FA6E1343FB667B691B06BA6E1343BB660B
:1046EC00FB79032B03D80120FCF71EFFDFE0234BE3
:1046FC001B68BB60214B5B68FB60204B9B683B617C
:10470C001E4B4FF0FF32C3F880201C4B4FF0FF3292
:10471C00C3F88420194B40F6FF72C3F8882000BF01
:10472C004FF08043D3F81037002BF9D100BF144B56
:10473C001B68002BFBD14FF080424FF08043D3F825
:10474C001837C2F81437FB79052B1BD14FF0804377
:10475C0003F50C5304331B68BB674FF0804303F520
:10476C000C53043301221A6016E000BFA807011095
:10477C0000ED00E000B0044000E0044000E100E087
:10478C0000E00042FB79062B06D1924B1B68C7F860
:10479C009030914B01221A60FB79052B40F28480FA
:1047AC004FF08043D3F80434C7F88C30D7F88C30F2
:1047BC00042B03D0D7F88C30032B04D14FF080435B
:1047CC000022C3F804244FF08043D3F80C34C7F80C
:1047DC008830D7F88830042B03D0D7F88830032BD7
:1047EC0004D14FF080430022C3F80C244FF08043D7
:1047FC00D3F81434C7F88430D7F88430042B03D0A2
:10480C00D7F88430032B04D14FF080430022C3F837
:10481C0014244FF08043D3F81834C7F88030D7F8FD
:10482C008030042B03D0D7F88030032B04D14FF009
:10483C0080430022C3F818244FF08043D3F81C3473
:10484C00FB67FB6F042B02D0FB6F032B04D14FF0E3
:10485C0080430022C3F81C24604B00221A604FF0E6
:10486C0080434FF00112C3F84821786DFEF798F998
:10487C004FF0804303F5005310331B687B67584B94
:10488C0001221A60FB79082B0ED14FF0804303F5FF
:10489C000053544A1A60544B00221A60534B0022A6
:1048AC001A60534B00221A60524B00221A60FB799B
:1048BC00022B05D9FB79052B02D8786DFEF770F920
:1048CC00FB79012B08D900BF4FF4801303F57F430C
:1048DC00FC331B68002BF7D130BFFB6E002B0CD0C8
:1048EC00454BD3F8FC333B64444BD3F83C31FB636E
:1048FC00FB6B1A063B6C13437B66FB79062B31D999
:10490C00022387F85F307B6F002B2BD0FB79082BB1
:10491C0021D17B6D1B7A022B0CD1344B01221A60F6
:10492C003748FCF701FE304B01221A604FF4FA6055
:10493C00FCF7FAFD7B6D5B7A022B0CD14FF08043B8
:10494C0003F5045304331A6842F001021A604FF461
:10495C00FA70FCF7E9FD4FF0804303F50053103378
:10496C007A6F1A60FB79032B40F2A7804FF08043DB
:10497C0003F5115304331B68002B03D17B6D00220C
:10498C005A7302E0022387F85F301E4B1B68002B22
:10499C0003D17B6D00221A7302E0022387F85F308B
:1049AC004FF0804303F5115308331B68002B06D1DD
:1049BC007B6D0022DA727B6D0022DA7302E0022337
:1049CC0087F85F3097F85F30002B21D10E4B0F4AE0
:1049DC001A606AE00C7400420C64004200A20042AF
:1049EC00200004420101010008200442002004427E
:1049FC00802004427C40004200B0044000E00440AF
:104A0C0040420F0000A000423C10011000093D0084
:104A1C00FB79052B49D97B6DDB7A022B12D16E4BBE
:104A2C0001221A606D4B01221A606D4B01221A6033
:104A3C006420FCF779FD6A4B00221A604FF4FA608F
:104A4C00FCF772FDD7F88830042B0ED0D7F88430E1
:104A5C00042B0AD0D7F88030042B06D0FB6F042B24
:104A6C0003D0D7F88C30042B02D15E4B01221A6094
:104A7C004FF08042D7F88830C2F80C344FF08042A7
:104A8C00D7F88430C2F814344FF08042D7F8803015
:104A9C00C2F818344FF08042FB6FC2F81C344FF050
:104AAC008042D7F88C30C2F8043400BF4FF08043FA
:104ABC0003F508531B68002BF8D1FB79012B05D1AA
:104ACC004FF08042D7F89430C2F880374FF08043D3
:104ADC00D3F8042722F0F002C3F80427424A424BD1
:104AEC001B6923F004031361FB79032B23D93F4B80
:104AFC0001221A60FB79052B07D14FF0804303F597
:104B0C000C530433BA6F1A6006E0FB79062B03D101
:104B1C00374AD7F890301360FB6C002B02D003207F
:104B2C00FDF7ACFF334ABB681360324AFB68536035
:104B3C00304A3B6993604FF0804303F51C531033AC
:104B4C001B683B667B6D3A6E9A613B6EDAB23B6ECC
:104B5C0003F470631B041A433B6E03F480539B04F1
:104B6C0013433B663A6E3B6F13403B663A6EFB6EEB
:104B7C001340002B08D07A6EBB6E5A40FB6E13406C
:104B8C00DB433A6E13403B6618E03B6E3B633B6B7A
:104B9C00B3FA83F3FB62FB6ADBB2C3F11F03BB63A3
:104BAC00BB6B012202FA03F31A463B6E9B1A3B665F
:104BBC00BB6BDBB25BB21846FCF782FC3B6E002B86
:104BCC00E3D13B6D002B00D162B697F85F301846ED
:104BDC00A437BD4690BD00BF4039004200A2004240
:104BEC0080A200420039004200ED00E07C4000420F
:104BFC000C74004200E100E080B584B000AF0346C5
:104C0C003960FB71534BFB60FB681B681B7883F0AE
:104C1C000103DBB2002B01D0012397E03B68012B91
:104C2C004BD1FB79012B19D0022B2DD0002B41D16C
:104C3C004FF0804303F5115314331A6842F01002FD
:104C4C001A606E20FCF770FC4FF0804303F5115393
:104C5C0014331A6842F020021A602DE04FF08043A2
:104C6C0003F5115314331A6842F001021A604620FE
:104C7C00FCF75AFC4FF0804303F5115314331A68B8
:104C8C0042F002021A6017E04FF0804303F5115313
:104C9C0014331A6842F004021A604620FCF744FCF4
:104CAC004FF0804303F5115314331A6842F0080295
:104CBC001A6001E0012349E047E03B68002B42D138
:104CCC00FB79012B16D0022B27D0002B38D14FF0BB
:104CDC00804303F5115314331A6822F020021A6032
:104CEC004FF0804303F5115314331A6822F010026D
:104CFC001A6027E04FF0804303F5115314331A6800
:104D0C0022F002021A604FF0804303F51153143362
:104D1C001A6822F001021A6014E04FF0804303F588
:104D2C00115314331A6822F008021A604FF08043B2
:104D3C0003F5115314331A6822F004021A6001E0CF
:104D4C00012303E001E0012300E0002318461037A3
:104D5C00BD4680BDA807011080B48BB000AF786051
:104D6C000B46FB70674B7B627B6A1B681B7883F07E
:104D7C000103DBB2002B01D00123BDE0FB78052B36
:104D8C0001D90123B8E07B68002B04D07A685E4B14
:104D9C001340002B01D00123AEE07B68FB60FB6865
:104DAC00B3FA83F3BB60BB68DBB23B623B6A4FF088
:104DBC000042DA407B689A4201D001239CE0FB78E8
:104DCC00524AD35CFB617B68802B2CD83A6A134621
:104DDC009B079B1A9B007C33BB61BB69FF2202FAC9
:104DEC0003F37B614FF0804303F51C531A687B6916
:104DFC00DB4313403B614FF0804303F51C533A698E
:104E0C001A604FF0804303F51C5308337A681A601C
:104E1C004FF08041BB69FA699A403B691A4301F52E
:104E2C001C531A6067E07B68B3F5805F2FD83A6A31
:104E3C0013469B079B1A9B005C33BB61BB69FF222B
:104E4C0002FA03F37B614FF0804303F51C530433E8
:104E5C001A687B69DB4313403B614FF0804303F5D9
:104E6C001C5304333A691A604FF0804303F51C530A
:104E7C0008337A681A604FF08041BB69FA699A402E
:104E8C003B691A4301F51C5304331A6033E0FB6988
:104E9C00012B01D901232FE03A6A13469B079B1A79
:104EAC009B005433BB61BB69FF2202FA03F37B61A5
:104EBC004FF0804303F51C5304331A687B69DB43C2
:104ECC0013403B614FF0804303F51C5304333A69A4
:104EDC001A604FF0804303F51C5308337A681A604C
:104EEC004FF08041BB69FA699A403B691A4301F55E
:104EFC001C5304331A60002318462C37BD465DF84A
:104F0C00047B7047A80701100060FCFFD409011056
:104F1C0080B483B000AF0A4B7B607B681B681B7846
:104F2C0083F00103DBB2002B01D0002302E07B688D
:104F3C001B689B6918460C37BD465DF8047B7047AF
:104F4C00A807011080B485B000AF0346FB711C4B61
:104F5C00BB60BB681B681B7883F00103DBB2002BC2
:104F6C0001D0012325E0FB79032B18D801A252F8BC
:104F7C0023F000BF954E00109B4E0010A34E001066
:104F8C00A94E00100023FB600BE04FF00043FB60C8
:104F9C0007E00C4BFB6004E00B4BFB6001E00123D2
:104FAC0007E04FF0804303F508531033FA681A609A
:104FBC00002318461437BD465DF8047B704700BFCC
:104FCC00A8070110210000800100008080B483B08C
:104FDC0000AF0C4B7B607B681B681B7883F0010374
:104FEC00DBB2002B00D007E04FF08043D3F8002653
:104FFC0042F00102C3F800260C37BD465DF8047B75
:10500C00704700BFA807011080B483B000AF054BF8
:10501C007B607B681B685B6918460C37BD465DF886
:10502C00047B7047A807011080B485B000AF03461D
:10503C00FB710C4BFB60FB681B681B7883F0010356
:10504C00DBB2002B01D0012305E04FF08042FB794D
:10505C00C2F89037002318461437BD465DF8047B20
:10506C00704700BFA807011080B485B000AF03469D
:10507C00FB71144BFB60FB681B681B7883F001030E
:10508C00DBB2002B01D0012315E0FB79002B09D0FA
:10509C004FF0804303F5005310331A6842F480320A
:1050AC001A6007E04FF0804303F500531A6842F48E
:1050BC0080321A60002318461437BD465DF8047B15
:1050CC00704700BFA807011080B487B000AF7860AC
:1050DC000B46FB701C4B7B617B691B681B7883F058
:1050EC000103DBB2002B01D0012326E07B68002BEF
:1050FC0004D07A68154B1340002B01D001231CE01F
:10510C007B68FB60FB68B3FA83F3BB60BB68DBB204
:10511C00C3F11F033B613B69012202FA03F31A46F8
:10512C007B689A4201D0012307E03B699A00084B47
:10513C0013441A46FB781360002318461C37BD46EF
:10514C005DF8047B704700BFA80701100060FCFFEE
:10515C0080E1044280B400AF4FF08043D3F80037B5
:10516C009B0803F00303DBB21846BD465DF8047BD5
:10517C00704700BF80B489B000AF594BFB60FB682F
:10518C001B68BB60BB6800229A6198E0BB689A6997
:10519C007B681A43BB689A6100237B617B68DBB236
:1051AC00002B2FD07B687B617B6903F0F0031A0323
:1051BC007B6903F00F0313437B617B699A017B6965
:1051CC00134303F003337B617B69DA007B69134380
:1051DC0003F011337B617B69C3F188337B617B699D
:1051EC0083F088337B614FF0804303F51C531B68BD
:1051FC00FB614FF080417B69DA43FB691A4001F592
:10520C001C531A6000233B617A68364B1340002B09
:10521C003BD07B683B613B6903F460339A083B6984
:10522C0003F4F85313433B613B6903F470431A01D5
:10523C003B6903F470631B0A13433B613B699A019E
:10524C003B69134303F003333B613B69DA003B6971
:10525C00134303F011333B613B69C3F188333B616A
:10526C003B6983F088333B614FF0804303F51C535B
:10527C0004331B68BB614FF080413B69DA43BB6967
:10528C001A4001F51C5304331A604FF0804303F5A8
:10529C001C5308337A681A607B69002B05D04FF0D9
:1052AC00804303F51C53FA691A603B69002B06D046
:1052BC004FF0804303F51C530433BA691A604FF066
:1052CC00804303F51C5310331B687B607B68002BF9
:1052DC007FF45CAF2437BD465DF8047B704700BF9C
:1052EC00A8070110001F030080B483B000AF034671
:1052FC00FB71084997F907305B09FA7902F01F0234
:10530C00012000FA02F241F823200C37BD465DF86B
:10531C00047B704700E100E080B483B000AF03462B
:10532C00FB71094997F907305B09FA7902F01F0202
:10533C00012000FA02F2203341F823200C37BD463D
:10534C005DF8047B704700BF00E100E080B483B0DF
:10535C0000AF0346FB71094997F907305B09FA79ED
:10536C0002F01F02012000FA02F2603341F8232000
:10537C000C37BD465DF8047B704700BF00E100E0D0
:10538C0080B483B000AF786039607B68002B01D1AA
:10539C0000230DE03B681F2B09D83B68012202FA61
:1053AC0003F35A1E7B689A4201D2002300E00123CA
:1053BC0018460C37BD465DF8047B704780B483B04B
:1053CC0000AF084B1B687B600023BA8862F30F03A5
:1053DC00FA8862F31F4318460C37BD465DF8047B10
:1053EC00704700BFA40A011080B400AF6FF3000334
:1053FC006FF341036FF382036FF3C3031846BD468B
:10540C005DF8047B704700BF80B584B000AFF860D6
:10541C00B9607A60FB689B681B78002B01D0012374
:10542C0025E0FB689B68BA685A60FB689B687A68E1
:10543C00DA607B6803F00103002B0BD0FB681B794F
:10544C005BB21846FFF782FFFB681B795BB218460C
:10545C00FFF74AFFFB689B6801221A70FB689B6888
:10546C0020229A60F868012100F024F800231846E5
:10547C001037BD4680BD00BF80B582B000AF7860EC
:10548C007B681B795BB21846FFF760FF7B681B7962
:10549C005BB21846FFF740FF7868002100F00AF86D
:1054AC007B689B6800221A70002318460837BD469B
:1054BC0080BD00BF80B582B000AF78600B46FB703A
:1054CC007B689B681B7883F00103DBB2002B01D057
:1054DC00012329E07B689B685B78FA789A4201D1BA
:1054EC00002321E0FB78022B01D901231CE0FB787F
:1054FC00002B04D00E4B5B6D1220012198477B686A
:10550C009B68FA785A70FB78002B0CD1094B5B78AE
:10551C00002B08D1084B5B78002B04D1044B5B6D3E
:10552C00122000219847002318460837BD4680BD3D
:10553C00AC070110F00000200001002080B489B0FD
:10554C0000AFF860B9603B601346FB71FB689B6869
:10555C001B7883F00103DBB2002B01D0012362E046
:10556C00FB689B685B78002B01D101235BE0FB6837
:10557C001B689A002F4B13441B6803F08003002B0D
:10558C0001D001234FE0BB68102B02D0202B03D09D
:10559C0005E00023BB6104E00123BB6101E00123B2
:1055AC0041E0FB79012B08D0022B0BD0002B0ED144
:1055BC000123FB6100233B610BE00023FB61012312
:1055CC003B6106E00023FB6100233B6101E001230A
:1055DC0029E03B68102B07D0B3F5807F07D0012B57
:1055EC0008D100237B6107E001237B6104E00223E7
:1055FC007B6101E0012316E0FB681B689A000D4BF0
:10560C001344BA695100FA6911437A699200114343
:10561C003A6992010A4342F020021A60FB689B68C7
:10562C00BA689A60002318462437BD465DF8047B9F
:10563C00704700BF0820044080B582B000AF78608E
:10564C0039607B689B685B78022B01D0012323E0D7
:10565C007B689B689B6838681946FFF791FE034688
:10566C00002B01D1012317E07B681B689B0003F121
:10567C00804303F584233A681A607B681B689A00A0
:10568C00074B13447A6812689100054A0A44126861
:10569C0042F080021A60002318460837BD4680BDD0
:1056AC000820044080B483B000AF78607B689B68AE
:1056BC005B78022B01D001230EE07B681B689A00FB
:1056CC00084B13447A6812689100064A0A4412681F
:1056DC0022F080021A60002318460C37BD465DF894
:1056EC00047B70470820044080B483B000AF78601E
:1056FC007B689B685B78022B01D000230DE07B68F4
:10570C001B689A00084B13441B68DB0903F0010368
:10571C00002B14BF01230023DBB218460C37BD4607
:10572C005DF8047B704700BF0820044080B582B050
:10573C0000AF786039607B689B685B78022B01D086
:10574C00012315E07B689B689B6838681946FFF756
:10575C0017FE0346002B01D1012309E07B681B686F
:10576C009B0003F1804303F584233A681A600023FD
:10577C0018460837BD4680BD80B582B000AF786052
:10578C0039607B689B685B78022B01D0012313E0A6
:10579C007B689B689B6838681946FFF7F1FD0346E8
:1057AC00002B01D1012307E07B681B689A00044B96
:1057BC0013443A681A60002318460837BD4680BD6A
:1057CC001820044080B483B000AF78607B689B687D
:1057DC005B78022B02D04FF0FF3305E07B681B682F
:1057EC009A00044B13441B6818460C37BD465DF8F1
:1057FC00047B70470420044090B482B000AF044690
:10580C00084611461A462346FB710346BB710B46EC
:10581C007B7113463B71012318460837BD4690BC7B
:10582C00704700BF80B483B000AF0346FB71012307
:10583C0018460C37BD465DF8047B704780B400AF4A
:10584C004FF0FF331846BD465DF8047B704700BF30
:10585C0080B483B000AF0346FB71012318460C37AC
:10586C00BD465DF8047B704780B483B000AF7860B0
:10587C000B46FB70012318460C37BD465DF8047BC4
:10588C00704700BF80B483B000AF0346FB710B467A
:10589C00BB7113467B71012318460C37BD465DF86E
:1058AC00047B704780B483B000AF0346FB710123C7
:1058BC0018460C37BD465DF8047B704790B482B037
:1058CC0000AF0446084611461A462346FB710346B0
:1058DC00BB710B467B7113463B710123184608378D
:1058EC00BD4690BC704700BF80B400AF0123184682
:1058FC00BD465DF8047B704780B483B000AF0346AF
:10590C00FB71012318460C37BD465DF8047B7047CC
:10591C0080B582B000AF78607B681B689A000F4B33
:10592C00134401221A607B681B689A000C4B1344C9
:10593C001B6803F00103002B02D07868FFF7B2FE5E
:10594C007B689B685B68002B04D07B689B685B68FA
:10595C00002098470837BD4680BD00BF0C2004408E
:10596C000820044080B582B000AF786039600548EB
:10597C0079683A68FFF748FD034618460837BD4674
:10598C0080BD00BFDC09011080B500AF0248FFF7F5
:10599C0073FD0346184680BDDC09011080B582B04A
:1059AC0000AF0346FB71FB7904481946FFF782FDF3
:1059BC00034618460837BD4680BD00BFDC09011000
:1059CC0080B584B000AFF8600B467A60FB72FB7A4E
:1059DC000548F9681A467B68FFF7B0FD0346184680
:1059EC001037BD4680BD00BFDC09011080B582B008
:1059FC0000AF786004487968FFF71EFE034618462E
:105A0C000837BD4680BD00BFDC09011080B500AF72
:105A1C000248FFF747FE0346184680BDDC0901101B
:105A2C0080B500AF0248FFF75FFE0346184680BD05
:105A3C00DC09011080B582B000AF78600448796849
:105A4C00FFF774FE034618460837BD4680BD00BFFD
:105A5C00DC09011080B582B000AF78600448796829
:105A6C00FFF78AFE034618460837BD4680BD00BFC7
:105A7C00DC09011080B500AF0248FFF7A3FE034616
:105A8C00184680BDDC09011080B500AF0148FFF756
:105A9C003FFF80BDDC09011080B582B000AF78609B
:105AAC003960054879683A68FFF7AEFC034618463A
:105ABC000837BD4680BD00BFE809011080B500AFB6
:105ACC000248FFF7D9FC0346184680BDE8090110CF
